:020000040800F2
:10000000380A0020C50100085F2600089F2000086C
:100010005D26000889080008692A00080000000021
:10002000000000000000000000000000E5260008BD
:10003000990B000800000000E3260008E7260008EE
:10004000DF010008DF010008DF010008DF01000810
:10005000DF010008DF010008DF010008DF01000800
:10006000DF010008DF010008DF010008DF010008F0
:10007000DF010008DF010008DF010008DF010008E0
:10008000DF010008DF010008DF010008DF010008D0
:100090008D080008DF010008DF010008DF0100080B
:1000A000DF010008DF010008DF010008DF010008B0
:1000B000DF010008DF010008DF010008DF010008A0
:1000C000DF010008DF010008DF010008DF01000890
:1000D000DF010008DF010008DF010008DF01000880
:1000E000DF010008DF010008DF010008DF01000870
:1000F000DF010008DF010008DF010008DF01000860
:10010000DF010008DF010008DF010008DF0100084F
:10011000DF010008DF010008DF010008DF0100083F
:10012000DF010008DF010008E90A0008DF0100081C
:10013000DF010008DF010008DF010008DF0100081F
:10014000DF010008DF010008DF010008DF0100080F
:10015000DF010008DF010008DF010008DF010008FF
:10016000DF010008DF010008DF010008DF010008EF
:10017000DF010008DF010008DF01000800000000C7
:10018000DF010008DF010008DF010008DF010008CF
:10019000DF010008DF010008DF010008DF010008BF
:1001A0000000000000000000DF010008DFF810D0B0
:1001B00000F058FB00480047A9390008AFF3008061
:1001C000380A00200648804706480047FEE7FEE759
:1001D000FEE7FEE7FEE7FEE7FEE7FEE7FEE7FEE7F7
:1001E0008D270008AD0100082DE9F05F05460020CD
:1001F00092469B4688460646814640241BE0284698
:1002000041464746224600F0F6F953465A46C01A80
:10021000914110D311461846224600F0DDF92D1AFF
:1002200067EB01084F4622460120002100F0D4F977
:1002300017EB00094E41201EA4F10104DFDC484603
:1002400031462A464346BDE8F09FD2B201E000F8AD
:10025000012B491EFBD270470022F6E710B513466A
:100260000A4604461946FFF7F0FF204610BD2DE967
:10027000FE4F804681EA0300C00F0C46009021F03B
:10028000004123F00045B8EB0200A94105D24046E9
:10029000214690461C460B46024623F00040104380
:1002A00047D0270DC7F30A00C3F30A510290401A42
:1002B000019040286BDAC3F3130040F4801B0098D0
:1002C000924620B10023D2EB030A63EB0B0B01989B
:1002D0005946C0F14002504600F07EF906460D46F0
:1002E00050465946019A00F096F910EB080061411A
:1002F000002487EA115284EAE7731A4340D0009A37
:1003000062B3019A012A4FEA075215DC001B61EB28
:1003100002014FF0004202EA0752CDE90042001C00
:1003200041F5801132462B4600F0CDF903B0BDE80F
:10033000F08F40462146F9E7001B61EB0201001CEB
:1003400041F5801300185B412018A2F5001747EB18
:10035000030140EAD570B6196D4111E06D084FEA0E
:10036000360645EAC0754FEA0752001B61EB0201F1
:10037000001C41F5801149084FEA30000019514135
:1003800032462B4603B0BDE8F04F00F08DB900981F
:10039000012240000023D0EB020263EBE0730098DF
:1003A00021464FEAE074B8EB000061EB0401E9E795
:1003B00083F000435BE781F0004158E72DE9FE4FF1
:1003C00081EA030404F0004421F0004100944FF05E
:1003D000000B23F0004350EA01045ED052EA03040C
:1003E0005BD0C3F30A54C1F30A552C44A4F2F3348E
:1003F0000194A0FB0254C1F3130141F48011C3F333
:10040000130343F4801301FB024400FB034E840AF0
:10041000970A44EA815447EA8357A4FB0768029588
:100420008D0A05FB07854FEA932C04FB0C54270526
:10043000029D4FEA065847EA1637B5EB08056EEB02
:10044000070C870E920E47EA811742EA8312A7FB38
:100450000201B6EB0B0164EB00042B0D43EA0C33F5
:100460005E1844EB1C50DA465146E7FB0201C5F327
:1004700013044FEA0B3343EA14534FEA0432019C4E
:1004800043EA0603A4F10C040294009CCDE900B4F5
:1004900000F019F903B0BDE8F08F00200146F9E73C
:1004A0002DE9F04D81EA030404F0004B21F00045F2
:1004B00014464FF0000A23F0004150EA050220D014
:1004C00054EA01021DD0C5F30A570246C5F31303CF
:1004D000C1F31300C1F30A5640F4801543F48013AE
:1004E000A7EB0608101BD64608F2FD3873EB050093
:1004F00002D308F1010801E092185B41B8F1000F46
:1005000003DA00200146BDE8F08D00204FF4801191
:10051000064684460EE0171B73EB050705D3121B36
:1005200063EB050306434CEA010C49084FEA30002F
:1005300092185B4150EA0107EDD152EA030012D054
:1005400082EA040083EA0501084305D0101BAB4191
:1005500006D20122002306E000224FF0004302E011
:100560006FF0010253101AEB06004CEB085110EB30
:100570000A0041EB0B01BDE8F04D00F095B80EB557
:10058000C10F80EAE0700844CA07002140F23343FB
:100590008DE80E000A460B4600F095F803B000BD4A
:1005A00001F0004330B421F0004150EA010206D0CE
:1005B0000A0DA2F56072C1F31301002A02DC30BCFF
:1005C00000207047440F44EAC104C100E01830BC69
:1005D00000EBC25000F031B8202A04DB203A00FAC8
:1005E00002F1002070479140C2F1200320FA03F38A
:1005F000194390407047202A04DB203A21FA02F088
:100600000021704721FA02F3D040C2F1200291404C
:10061000084319467047202A06DBCB17203A41FAD7
:1006200002F043EAE07306E041FA02F3D040C2F17F
:10063000200291400843194670470029A8BF70471F
:10064000401C490008BF20F00100704710B4B0FA08
:1006500080FC00FA0CF050EA010404BF10BC7047A3
:1006600049B1CCF1200421FA04F411FA0CF118BFBD
:10067000012121430843A3EB0C01CB1D4FEA00618C
:100680004FEA102042BF002010BC704700EBC3505F
:1006900010440029A4BF10BC7047401C490008BF8B
:1006A00020F0010010BC704710B5141E73F1000457
:1006B00008DA401C41F1000192185B411A4301D154
:1006C00020F0010010BD2DE9F04D92469B4611B17E
:1006D000B1FA81F202E0B0FA80F220329046FFF7E0
:1006E0007BFF04460F4640EA0A0041EA0B015346ED
:1006F0005A46084313D0114653EA010019D0C8F1F5
:1007000040025046FFF777FF05460E4650465946D1
:100710004246FFF761FF084305D0012004E0204670
:100720003946BDE8F08D0020054346EAE0762C43CB
:1007300037430A986305E40AA0EB08000022FD0A8B
:1007400044EA47540A3002D500200146E9E7010592
:1007500010196941DDE9084500196941BDE8F04D0E
:10076000A2E770B521F0004303430CD0C1F30A5552
:100770000024D5EB040564EB0403D617AD1AB3418E
:1007800002DB0020014670BD201841EB025170BD14
:100790002DE9F04D00231A461B1A8A4103DB002085
:1007A0000146BDE8F08DC1F30A52C1F3130141F4D3
:1007B00080154FF0000BD10702D100186D41521E79
:1007C0000027044640F2FF11384601EB620A3E461C
:1007D0008046024600204FF48011FFF70CFFC2193B
:1007E0007141BB1846EB0100B4EB030C75EB000C38
:1007F00004D3E41A65EB000517460E46241908F1E8
:1008000001006D4180463428E3DDF91946EB06000E
:10081000091BA84103D24FF0FF32134601E000222A
:1008200013461BEB070046EB0A51BDE8F04DFFF7FE
:100830003BBF000030B5041E71F1000404DB4FF033
:100840000044404264EB0101141E73F1000405DB17
:100850001C464FF00043524263EB0403994208BF29
:10086000904230BD064C074D06E0E06840F00103C1
:1008700094E8070098471034AC42F6D3FFF79AFC8F
:10088000703C0008903C0008FEE70000014800F0C2
:1008900018BB00004C00002010B58AB000210122D6
:1008A0000446CDE90612039104910E20CDE90820FB
:1008B00005910091019102916946204600F0F0F9FE
:1008C00008B100F06AF9204600F0E8FC08B100F039
:1008D00064F90221204600F062F908B100F05DF9E8
:1008E0000AB0002010BD0000002A02D1014900F02A
:1008F00035B870472C00002030B589B00825044673
:1009000006950C98AD0102950025049505950D0AF4
:100910008DF800508DF80110110A8DF80210190A97
:100920008DF804108DF80530010A8DF806108DF849
:1009300003208DF80700204600F0ADFA0028FAD019
:10094000054B6A4602A9204600F03BF9002801D079
:1009500000F023F909B030BD2800002000B5A0F256
:100960000120082812D200EBC002094800EB021255
:1009700050683228104605DA02F0FCFF5068401C2F
:10098000506001E000F04CF8002000BD012000BDE7
:10099000980100209FED1A1ADFED1A1A9FED1A2A0E
:1009A000DFED1A2A1A4A9FED1B3A0021F2EE0E0AD9
:1009B000B7EE000A01EBC10002EB0010C0ED0E0A19
:1009C00080ED0F0A80ED100A80ED171AC0ED191A9C
:1009D00080ED1A0A80ED1B2AC0ED222A037813B19C
:1009E000012B03D006E0DFED0C3A01E0DFED0B3A1E
:1009F000C0ED0C3A491C80ED0D3A0829DADB70474E
:100A00000000FA450000A0420000000000409C45A4
:100A100098010020000000462CA0994100001042DF
:100A20000A88DFED2E1A52BA00EE102A90ED0D1A48
:100A30002B4BB8EE400A60EE210A80EE810A80ED71
:100A4000020A4A8852BA12B200EE902AB8EEE01AB0
:100A500080ED031A898849BA09B200EE901AF8EEBF
:100A6000E00AC0ED040AD0ED070AC0ED060A70EEF8
:100A7000600A80ED070A416A10EE902A9A4201DD71
:100A8000491E05E010EE902A164B9A4201D9491CE6
:100A9000416200EE901A4FF4B4725143F8EEE00A4E
:100AA00060EEA11AD0ED080A30EE602A72EE211A2B
:100AB00090ED0C2AC1EE822AC1EE021A01EE101A44
:100AC000C0ED0A2AB8EEC11A31EE000A30EE600A13
:100AD000C0ED0B1A80ED050A704700000000B4431A
:100AE00000003443000034C3014800F00BBC000098
:100AF000B400002001681823CAB2103AB2FBF3F226
:100B0000054B6FF30901032A9B5CC36500D9091DDE
:100B10008165084670470000C03B000810B50146DB
:100B200000208B698A6A4FF0C07453B1B3F5005F3F
:100B300015D072B1012A0CD0022A0AD0032A09D199
:100B400004E01AB1012A06D0022A03D1C96AC901F8
:100B500000D5012010BDC96AA142FAD010BD002AFB
:100B6000F7D0012AF2D0022AF3D0032AF3D010BD25
:100B700030B50468256825F4802525600468636025
:100B80008368402B036803D099600068C26030BD61
:100B90009A600068C16030BD704772B6FEE790F899
:100BA0002020012A07D0022A05D0416A41F4802181
:100BB000416201207047006842690A434261002097
:100BC0007047F0B590F820500468A468012D05D056
:100BD000022D03D0416A41F480215DE014F0406FA2
:100BE00001D1E50055D5C4F30164022C03D9416A53
:100BF00041F4000150E00125A5401D608D684FF4CF
:100C0000C0739DB1CE6835434E6845EAC605066897
:100C100003EB0417F5514FF4C275076805EB041593
:100C20000E697E51097D012905D009E00E88CD6845
:100C300045EA4655EBE701684E5946F480764E5139
:100C40001179D579567941EA056195792D0445EAFE
:100C5000062529434FF4C676056806EB0416A9510C
:100C60001178D57841EA0561957852782D0445EAE6
:100C7000022211434FF4C475026805EB041551516B
:100C8000006803EB0411425842F001024250002078
:100C9000F0BD416A41F4001141620120F0BD000045
:100CA00010B590F82020012A07D0022A05D0416A09
:100CB00041F480214162012010BD3B48D0F8002260
:100CC00042F00102C0F80022D0F8002222F47C5247
:100CD000C0F80022D0F800224B6A42EA0322C0F892
:100CE00000220A7D02F01F0301229A40D0F81C3234
:100CF0009343C0F81C32CB69B3B9D0F80C3293439C
:100D0000C0F80C328C894B6864F31F434C6900EBCC
:100D1000C404C4F840320C890B6864F31F434C6967
:100D200000EBC404C4F84432CB69012B16D1D0F8CF
:100D30000C321343C0F80C320C884B6864F31F4329
:100D40004C6900EBC404C4F840320C89CB6864F3EE
:100D50001F434C6900EBC404C4F844328B69002B78
:100D6000D0F804320ED01343C0F804320B69002BC4
:100D7000D0F8143208D01343C0F81432096A01299C
:100D800004D008E09343EFE79343F5E7D0F81C1253
:100D90001143C0F81C12D0F8001221F00101C0F874
:100DA0000012002010BD000000640040704730B504
:100DB00090F82040012C05D0022C03D0416A41F468
:100DC00080215DE00468002955D02469A40754D02F
:100DD0004FF4D874056804EB01142D5915F004057F
:100DE000956005682D594ED0ED08556005682C5961
:100DF00004F00204D4604FF4DA74056804EB0114C3
:100E00002D5905F00F05156105682D59C5F3072506
:100E1000956105682C59240C54614FF4DC72046808
:100E200002EB0112A4581C700468A458240A5C70D8
:100E30000468A458240C9C700468A258120EDA703E
:100E40004FF4DE72046802EB0112A4581C710468AE
:100E5000A458240A5C710468A458240C9C7104688A
:100E6000A258120EDA71006881B1016941F02001C7
:100E70000161002030BDE468A8E7416A41F4001137
:100E80004162012030BD6D0D1560AFE7C16841F0D2
:100E90002001C160EDE70246002092F820100129F0
:100EA00001D002290CD111688A68520100D50120B5
:100EB0008A68120100D5401C8968C90000D5401C11
:100EC00070472DE9F05F0546006800244669D0F8B8
:100ED00004908768D0F80CB0D0F810A0D0F8188033
:100EE000F10748D0F90714D001218160B80703D574
:100EF000284600F000FA0CE0780702D54FF40064B1
:100F000007E0380702D54FF4805402E0284600F08D
:100F1000F1F9F80516D529684FF480708860B80596
:100F200003D5284600F0E9F90CE0780502D544F431
:100F3000005407E0380502D544F4804402E0284616
:100F400000F0DAF9F80316D529684FF4803088608C
:100F5000B80303D5284600F0D2F90CE0780302D597
:100F600044F4004407E0380302D544F4803402E03E
:100F7000284600F0C3F9300707D55FEACB6004D5F7
:100F80002968102044F40074C86070074FF0080707
:100F900007D55FEA0B7004D52868C760284600F0C3
:100FA00057F9B00706D52868C068800702D02846E0
:100FB00000F050F9700607D55FEACA6004D52968C9
:100FC000102044F480640861B00607D55FEA0A7017
:100FD00004D528680761284600F05CF9F00606D5BC
:100FE00028680069800702D0284600F054F9B00351
:100FF00008D55FEAC96005D52968102048602846F1
:1010000000F04AF9F00307D55FEA097004D52868B3
:101010004760284600F074F9300446D55FEA49700D
:1010200040D5F00504D55FEAC87001D044F0010452
:10103000B00504D55FEA887001D544F0020470055C
:1010400004D55FEA487001D544F00404300529D581
:1010500018F0700F26D008F07000402815D006DC7C
:10106000102809D020280AD0302816D10AE05028AC
:101070000ED0602811D10EE044F008040DE044F0D9
:1010800010040AE044F0200407E044F0400404E0C7
:1010900044F0800401E044F480742868816921F000
:1010A00070018161296804204860002C05D0686ABD
:1010B000204368622846FFF779FEBDE8F09F70B5CF
:1010C000040003D094F8200010B104E0012070BDAA
:1010D000204600F081F82068016821F002010160DB
:1010E00000F07EFB0546052604E000F079FB401B7E
:1010F0000A2811D8206840688007F6D42068016863
:1011000041F00101016000F06BFB05460BE000F0CF
:1011100067FB401B0A2806D9606A40F40030606211
:1011200084F82060D2E720684068C007EFD0207EB6
:101130000128206801683DD021F080010160607EB7
:1011400001282068016838D021F040010160A07EAC
:1011500001282068016833D021F020010160E07E81
:101160000128206801682ED041F010010160207F25
:1011700001282068016829D021F008010160607F02
:1011800001282068016824D021F004010160D4E91D
:1011900002010843D4E90412114308436168491E5F
:1011A00008432168C86100206062012084F82000A3
:1011B000002070BD41F08001C0E741F04001C5E76B
:1011C00041F02001CAE721F01001CFE741F008010A
:1011D000D4E741F00401D9E710B586B004461421E4
:1011E0006846FFF739F817492068884227D1164822
:1011F0000021026842F000720260006800F0007096
:10120000059011481038026842F008020260006838
:10121000022200F0080005900320CDE90210CDE97C
:101220000002092004906946084800F0EFF9002206
:101230001146142000F042FB142000F031FB06B0F0
:1012400010BD00000064004040380240000C024025
:101250007047000000B50D4A01688BB012689142DA
:1012600012D10B4B03AA0021FFF7A1FD08B1FFF734
:1012700094FC07AB0DF10C0C93E807008DE8070018
:101280009CE80F00FFF730FB0BB000BD4C000020C6
:101290002C000020704770477047000070B504466E
:1012A00090F82000012804D0606A40F400206062B9
:1012B00018E0022084F820002068016821F0010174
:1012C000016000F08DFA05460EE000BF00F088FADC
:1012D000401B0A2808D9606A40F40030606205208B
:1012E00084F82000012070BD20684068C007EDD15F
:1012F000606270BD704770477047704770477047B5
:10130000704700002DE9F84304464FF00009CDF87E
:10131000009063484FF41651A56D0068B0FBF1F7DB
:101320002E6894F85C10082000FA01F131420FD0C9
:1013300021680A6852070BD50A6822F004020A6085
:1013400094F85C108840A860606D40F00100606512
:1013500094F85C104FF0010808FA01F0304208D010
:1013600021684969090604D5A860606D40F0020053
:10137000606594F85C1004208840304208D02168F1
:101380000968890704D5A860606D40F004006065B5
:1013900094F85C1010208840304218D02168096809
:1013A000090714D5A86020680168490304D50068BE
:1013B000000308D5A16C07E00168C90503D40168E2
:1013C00021F008010160216C09B12046884794F89A
:1013D0005C1020208840304231D021680968C9065D
:1013E0002DD5A86094F8350005282068016806D03E
:1013F000490347D5006800031DD4616C1CE021F04F
:10140000160101602068416921F080014161206C72
:1014100008B9A06C20B12068016821F008010160C2
:1014200094F85C103F208840A86084F8349084F8D9
:101430003580216D1FE0E16B09B120468847606D62
:1014400000282BD0606DC00714D0052084F835002B
:101450002068016821F0010101600098401C0090A3
:10146000B84203D820680068C007F6D184F83490E9
:1014700084F83580E16C002910D001B02046BDE829
:10148000F04308470168C905D5D4016821F010016F
:10149000016084F8349084F83580CCE7BDE8F883A7
:1014A000240000202DE9F041044600F099F9064699
:1014B0005CB1002584F83450022084F8350020689F
:1014C000016821F0010101600DE00120BDE8F0811B
:1014D00000F086F9801B052805D9202060650320CF
:1014E00084F83500F2E720680068C007F0D1226870
:1014F000116820480140D4E901031843D4E90336B8
:101500003343184363691843A3691843E3691843D5
:10151000236A18430843616A042903D1D4E90B13F1
:1015200019430843106020684069666A20F007018B
:1015300030460E43012704280CD1A06A0643E06A16
:1015400040B12046FFF7EAFA20B14020606584F8F8
:101550003570BAE7206846612046FFF7CBFA94F869
:101560005C203F2191408160656584F835700020E2
:10157000ACE700003F8010F02DE9F0410446866D95
:1015800090F83400002501280DD0012084F83400A3
:1015900094F835700020012F07D084F8340002251C
:1015A0002846BDE8F0810220FBE7022784F8357069
:1015B00060652046FFF7DCFA94F85C103F20884015
:1015C000B0602068016841F016010160206C20B114
:1015D0002068016841F0080101602068016841F05D
:1015E00001010160DCE7000070B5044600F0F8F886
:1015F0000546601C02D004480078044400F0F0F86E
:10160000401BA042FAD370BD180000202DE9F84F0E
:1016100000224FF0010803254FF00F0E0B6808FA67
:1016200002F42340A3426ED14E68012E05D0022E53
:1016300003D0112E01D0122E12D186684FEA420C2F
:1016400005FA0CF7BE43CF6807FA0CF737438760FB
:101650004668A6430C79C4F30014944034434460B4
:10166000C668570005FA07FC8C6826EA0C06BC40E1
:101670003443C4604C68022C01D0122C13D1D4081E
:1016800000EB8404A346D4F8209054074FEAD46AB0
:101690000EFA0AF629EA06090E6906FA0AF646EA79
:1016A0000906CBF8206004680E7924EA0C0406F0E1
:1016B0000306BE40264306604C68E4006FD53B4CF1
:1016C000266846F480462660246822F0030604F467
:1016D00080440094364C3444A446D4F80848960715
:1016E000360F0EFA06F7BC43324FB84201D100273D
:1016F0002EE0314FB84201D1012729E02F4FB842E7
:1017000002D1022724E04AE02D4FB84201D103273D
:101710001EE02C4FB84201D1042719E02A4FB842ED
:1017200001D1052714E0294FB84201D106270FE067
:10173000274FB84201D107270AE0264FB84201D10E
:10174000082705E0244FB84201D1092700E00A2705
:10175000B7402743CCF80878204E34684F689C4344
:10176000FF0300D51C4334601C4E361D34684F689F
:101770009C43BF0300D51C433460184E08363468C0
:101780004F689C43FF0200D51C433460134E0C3657
:1017900034684F689C43BF0200D51C433460521C20
:1017A000102AFFF43BAFBDE8F88F00004438024038
:1017B00000300140000002400004024000080240E6
:1017C000000C0240001002400014024000180240C9
:1017D000001C02400020024000240240003C014066
:1017E00001488068704700001800002002488168A6
:1017F0000278114481607047180000200B4810B532
:10180000016841F400710160016841F48061016088
:10181000016841F480710160032000F06FF800203E
:1018200000F006F800F024F8002010BD003C024053
:1018300070B50D4D04464FF47A712878B1FBF0F085
:101840000A490968B1FBF0F000F03CFB48B9102CE4
:1018500007D200222146501E00F030F800206C60B4
:1018600070BD012070BD0000180000202400002081
:101870000A4808B5016841F480410160006800F43D
:10188000804000900548001F016841F080510160D0
:10189000006800F08050009008BD0000443802400D
:1018A000002809DB00F01F0201219140400980005F
:1018B00000F1E020C0F8001170470000F0B40E4BBA
:1018C0001B680C46C3F30223C3F10705042D00D99E
:1018D0000425191D072901D2002300E0DB1E012683
:1018E00006FA05F1491E214099409E40761E164099
:1018F0003143F0BC01F0D1B80CED00E0064900F036
:10190000070208684FF6FF03184040EA0220034A26
:1019100010430860704700000CED00E00000FA057D
:101920002DE9F8431748016841F0805101600068D3
:10193000154F00F08050012600903E64FFF750FFE5
:1019400005464FF47A78114C05E000BFFFF748FFD9
:10195000401B40450DD86068C003F7D57E64FFF793
:101960003FFF0546464607E0FFF73AFF401BB042FF
:1019700002D90320BDE8F88360688003F4D5002015
:10198000F8E700004038024000000E4200700040BE
:101990002DE9F0470E46050065D0DFF81481D8F830
:1019A0000000F7B200F00F00B04207D288F80070D4
:1019B000D8F8000000F00F00B04254D128683D4C28
:1019C000810712D5400703D5206840F4E05020601D
:1019D0002878000703D5206840F460402060206824
:1019E000A96820F0F000084320602878C0072DD0B7
:1019F000304968680839012812D0022813D003281A
:101A000011D00968890700292DDA216821F0030126
:101A100001432160FFF7E4FE814641F2883A0EE07F
:101A200009688903EFE709688901ECE7FFF7D8FE49
:101A3000A0EB0901514502D90320BDE8F0872068D9
:101A4000696800F00C00B0EB810FEFD1D8F80010FE
:101A5000404601F00F01B14207D90770006800F05D
:101A60000F00B04201D00120E7E72878400705D5F4
:101A70002068E96820F4E0500843206028780007D7
:101A800006D52068296920F4604040EAC100206042
:101A900000F038F82168084AC1F30311515CC840CE
:101AA0000649086006480068FFF7C2FE0020C4E748
:101AB000003C024008380240C83B000824000020D7
:101AC0001C0000200448054900680968044AC1F365
:101AD0008221515CC8407047240000200838024031
:101AE000D83B00080448054900680968044AC1F366
:101AF0004231515CC8407047240000200838024041
:101B0000D83B0008154810B5006810F00C021448C6
:101B100013D01449042A0FD0082A0ED10F4C241FC9
:101B20002268236802F03F025B0207D52068C0F3F9
:101B30008810A0FB010106E0084610BD2168C1F332
:101B40008811A1FB00010023FEF74EFB2168C1F3C1
:101B50000141491C4900B0FBF1F010BD08380240BA
:101B60000024F400001BB7002DE9F84F04006ED0EC
:101B70002078DFF83C93C007A9F104054AD009F1A9
:101B800004000168C1F38101012908D00068C0F395
:101B9000810002280AD1D9F80000400206D5286841
:101BA000800337D560680028E1D033E06068B0F585
:101BB000803F10D0B0F5A02F286810D020F48030DE
:101BC0002860286820F4802028606068A8B1FFF7AA
:101BD00007FE06460DE0286840F48030F4E740F444
:101BE00080202860F7E700BFFFF7FAFD801B64281C
:101BF00073D828688003F7D50CE0FFF7F1FD06469F
:101C000005E000BFFFF7ECFD801B6428F0D82868D2
:101C10008003F7D42078DFF89C8280074FF0000A19
:101C20003ED5A348001D016811F00C0F08D00068D4
:101C3000C0F3810002280BD1D9F80000400207D47C
:101C40002868800716D5E068012800D112E02BE152
:101C5000E068B8B10120C8F80000FFF7C1FD0646F2
:101C600005E000BFFFF7BCFD801B0228C0D8286834
:101C70008007F7D52868216920F0F80040EAC10004
:101C800028600DE0C8F800A0FFF7AAFD064604E0B2
:101C9000FFF7A6FD801B02281FD828688007F7D40D
:101CA0002078000722D5824E83486169703671B171
:101CB00001210160FFF794FD074604E0FFF790FD66
:101CC000C01B022809D830688007F7D50EE0C0F89D
:101CD00000A0FFF785FD074605E082E0FFF780FDE5
:101CE000C01B02287DD830688007F7D420784007D1
:101CF00068D5DFF8BCB100270BF13C0BDBF8000026
:101D0000C0000BD4DBF8001041F08051CBF800107C
:101D1000DBF80000012700F080500090674E30682B
:101D2000C00510D4306840F480703060FFF758FD73
:101D3000009005E0FFF754FD0099401A022850D8A2
:101D40003068C005F6D55A4EA0686C3601280FD011
:101D50000528306810D020F001003060306820F095
:101D600004003060A068B8B1FFF73AFD00900FE0C2
:101D7000306840F00100F4E740F004003060F7E71D
:101D8000FFF72EFD0099411A41F28830814266D852
:101D900030688007F4D50EE0FFF722FD009007E0E1
:101DA000FFF71EFD0099411A41F28830814256D852
:101DB00030688007F4D42FB1DBF8001021F0805197
:101DC000CBF80010A069C8B33949091D0968C1F3EF
:101DD000810102294AD00228504607D0C8F8600085
:101DE00000E03CE0FFF7FCFC04463BE04746C8F857
:101DF0006000FFF7F5FC064605E000BFFFF7F0FCCA
:101E0000801B02282BD828688001F7D4D4E9070169
:101E10000843A16A2A4A490802EB0141626A41EA81
:101E20008211084394F82C1040EA0161C9F80010AF
:101E300001203866FFF7D4FC044606E036E000BF18
:101E4000FFF7CEFC001B022809D828688001F7D5CF
:101E50002CE000BFFFF7C4FC001B022802D90320BE
:101E6000BDE8F88F28688001F4D41FE00128F7D07E
:101E7000D9F80000E26900F48001914214D1226A8D
:101E800000F03F0191420FD147F6C071626A0140F4
:101E9000914209D1A26A00F44031914204D1E16A31
:101EA00000F07060884201D00120D9E70020D7E718
:101EB0000438024000004742800E47420070004054
:101EC0000000FFFF10B5401EB0F1807F01D301205C
:101ED00010BD4FF0E02460610F21601700F0DDFDC0
:101EE0000020A06107202061002010BD704770B560
:101EF000040004D094F83900002510B106E0012058
:101F000070BD84F83850204600F022F8242084F870
:101F100039002068C16821F40051C160204600F0FA
:101F20000FFD2068016921F4904101612068416939
:101F300021F02A0141612068C16841F40051C1606B
:101F4000E563202084F8390084F83A00002070BD51
:101F500070B586B0064614216846FEF77DF91F4924
:101F60003068884238D11E480025016841F01001D0
:101F70000160006800F010000590194814380168ED
:101F800041F0020101600068694600F0020005901E
:101F9000C02000900220CDE9010503200390072016
:101FA00004901048FFF732FB104C0F4820604FF0B0
:101FB0000060C4E901054014C4E903508010656164
:101FC000C4E90650256220466562FFF76BFA08B146
:101FD000FEF7E3FD7463A66306B070BD0010014018
:101FE000443802400004024040640240B400002033
:101FF000F8B5044690F83A0020283CD1C1B3BAB3F2
:1020000094F83800012836D0012084F83800A16205
:10201000A2850025E563222084F83A00636B174807
:10202000D863636B16481864636B1648D864606B9A
:10203000134605650846666B216802463046091D51
:10204000FFF79AFA206801684168009184F83850D7
:10205000C16841F48071C1602068416941F00101AB
:1020600041612068416941F0400141610020F8BDB3
:10207000FFE70120FBE70220F9E70000CB2800087A
:102080000729000881280008034900680968884278
:1020900001D100F089BB7047740000207047FEE753
:1020A0002DE9F0412DED088BB0EE438AF0EE638A06
:1020B000B0EE429AF0EE629AB0EE41AAF0EE61AA5A
:1020C0009FED4CBB51EC100B53EC1B2BFEF776F93C
:1020D000884648EC100B064653EC192B51EC100BBC
:1020E000FEF769F9454C53EC1B2BC4E9000151EC98
:1020F0001A0BFEF763F90F4647EC100B054653EC3D
:10210000182B51EC100BFEF753F948EC106BC4E997
:10211000020153EC192B51EC100BFEF749F947EC77
:10212000105BC4E9060153EC182B51EC100BFEF7C1
:102130003FF948EC106BC4E9080153EC192B51EC42
:10214000100BFEF738F947EC105BC4E90C0153ECB7
:10215000182B51EC100BFEF72EF948EC106BC4E96C
:102160000E0153EC192B51EC100BFEF721F947EC43
:10217000105BC4E9120153EC182B51EC100BFEF765
:102180001AF99FED1F9B002504F16007C4E91401B3
:1021900005EB450004EBC006B0EE491A96ED020BC4
:1021A000F0EE691A00F08CFCB0EE408AF0EE608A26
:1021B00096ED000BB0EE491AF0EE691A00F080FCC3
:1021C000B0EE401AF0EE601A53EC182B51EC110BE4
:1021D000FEF74DF841EC100B01F09AFA07EBC50041
:1021E0006D1C80ED000B042DD2DBBDEC088BBDE82F
:1021F000F0810000000000000000E03F1801002016
:10220000000000000000004010B522482DED068BB4
:10221000B0EE428AF0EE628AB0EE419AF0EE619A38
:10222000B0EE40AAF0EE60AA00F036F81948B0EE21
:10223000482AF0EE682AB0EE491AF0EE691AB0EEBC
:102240004A0AF0EE6A0A183000F080F81148B0EE41
:10225000482AF0EE682AB0EE491AF0EE691AB0EE9C
:102260004A0AF0EE6A0A303000F0CAF8B0EE482AA6
:10227000F0EE682AB0EE491AF0EE691AB0EE4A0A9A
:10228000F0EE6A0ABDEC068B0248BDE8104048300B
:1022900000F010B91801002010B504462DED0A8B8E
:1022A000B0EE408AF0EE608AB0EE42AAF0EE62AA8A
:1022B000B0EE419A9FED20CBF0EE619AB0EE4C0A61
:1022C000F0EE6C0A01F024FA53EC182B51EC100BD1
:1022D000FEF774F89FED1ABB53EC1B2BFEF76EF85C
:1022E00041EC180BB0EE4C0AF0EE6C0A01F010FA5B
:1022F00053EC192B51EC100BFEF760F853EC1B2B31
:10230000FEF75CF841EC190B0F4853EC1A2B90EDDB
:10231000000B51EC100BFEF751F853EC192BFDF7A5
:10232000A6FF53EC182BFEF743F8FEF739F92061AE
:10233000BDEC0A8B10BD0000000000000000004052
:10234000000000000000E03F7801002010B50446C6
:102350002DED0A8BB0EE408AF0EE608AB0EE42AA14
:10236000F0EE62AAB0EE419A9FED20CBF0EE619ABA
:10237000B0EE4C0AF0EE6C0A01F0CAF953EC182BDF
:1023800051EC100BFEF71AF89FED1ABB53EC1B2B08
:10239000FEF714F841EC180BB0EE4C0AF0EE6C0AA4
:1023A00001F0B6F953EC192B51EC100BFEF706F8BF
:1023B00053EC1B2BFEF702F841EC190B0F4853ECC2
:1023C0001A2B90ED020B51EC100BFDF7F7FF53ECBD
:1023D000192BFDF7EDFF53EC182BFDF7E9FFFEF786
:1023E000DFF82061BDEC0A8B10BD0000000000008A
:1023F00000000040000000000000E03F78010020E5
:1024000010B504462DED0A8BB0EE408AF0EE608ADE
:10241000B0EE42AAF0EE62AAB0EE419A9FED20CB58
:10242000F0EE619AB0EE4C0AF0EE6C0A01F070F931
:1024300053EC182B51EC100BFDF7C0FF9FED1ABBAE
:1024400053EC1B2BFDF7BAFF41EC180BB0EE4C0A16
:10245000F0EE6C0A01F05CF953EC192B51EC100B07
:10246000FDF7ACFF53EC1B2BFDF7A8FF41EC190B5C
:102470000F4853EC1A2B90ED040B51EC100BFDF7A9
:102480009DFF53EC192BFDF793FF53EC182BFDF731
:10249000EEFEFEF785F82061BDEC0A8B10BD000052
:1024A0000000000000000040000000000000E03FCD
:1024B0007801002010B504462DED0A8BB0EE408A5D
:1024C000F0EE608AB0EE42AAF0EE62AAB0EE419A57
:1024D0009FED20CBF0EE619AB0EE4C0AF0EE6C0A64
:1024E00001F016F953EC182B51EC100BFDF766FFB9
:1024F0009FED1ABB53EC1B2BFDF760FF41EC180B53
:10250000B0EE4C0AF0EE6C0A01F002F953EC192B14
:1025100051EC100BFDF752FF53EC1B2BFDF74EFF58
:1025200041EC190B0F4853EC1A2B90ED060B51ECB4
:10253000100BFDF743FF53EC192BFDF798FE53ECFE
:10254000182BFDF794FEFEF72BF82061BDEC0A8BEB
:1025500010BD00000000000000000040000000006E
:102560000000E03F780100200E4810B50C490160E2
:102570000921416000214FF400328160C0E903125B
:102580004161017641768176C17601774177FEF728
:1025900096FD002803D0BDE81040FEF7FEBA10BD3E
:1025A000006400404C000020094808B5016841F46F
:1025B000800101600068002200F480000090114654
:1025C0003A20FFF77BF9BDE808403A20FFF768B9E9
:1025D00030380240114808B5016841F0010101603E
:1025E000016801F001010091016841F00201016000
:1025F000016801F002010091016841F008010160E9
:10260000016801F008010091016841F0800101605A
:10261000006800F08000009008BD000030380240E3
:102620000C4810B50A4901600B49416000218160E6
:102630000C22C160C0E904128161C161FFF757FC3F
:10264000002803D0BDE81040FEF7A7BA10BD000077
:102650000010014074000020A0860100FEE7FEE7A4
:1026600090ED040AD0ED030AB0EE002A30EE600AC5
:1026700080ED050AD0ED070AD0ED001A30EE601AA1
:1026800021EE211AD0ED011A01EE801AF0EE401A67
:1026900040EEC21A90ED062A71EE821A90ED022ADF
:1026A00002EE211AD0ED081A31EE211A80ED081A37
:1026B000C0ED060A80ED070A90ED090AB4EEC01AD3
:1026C000F1EE10FA01DD80ED080AD0ED080AB1EE56
:1026D000400AF4EEC00AF1EE10FA01D280ED080AC9
:1026E000704770477047FFF781B8000030B593B06E
:1026F00030216846FDF7B0FD14210CA8FDF7ACFDB4
:1027000020480025016841F080510160006800F018
:10271000805011901C48016841F4404101600068FC
:10272000022400F440401190012000900004019028
:102730008001CDE9064006200890B420CDE90904C7
:1027400004200B906846FFF70FFA08B172B6FEE757
:10275000FFF7E6F808B172B6FEE70CA90F2081E892
:1027600031004FF4A0500F904FF48050109005218D
:102770000CA8FFF70DF9002801D072B6FEE713B0E0
:1027800030BD00004038024000700040054801683C
:1027900041F47001016003494FF000608039086026
:1027A0007047000088ED00E070B52B482D4C2DEDF2
:1027B000048B01889FED299BC1F30A02A0F10C0153
:1027C0000A804278D308827843EA4213C3F30A03AB
:1027D0004B80C378920942EA8303027943EA822359
:1027E000C3F30A038B805308427943EAC213C3F34D
:1027F0000A03CB8093090B72C2F301154D72B0F935
:102800001000488194ED008B012B03D0022B01D0E6
:10281000032B0DD1A0F58060FDF7B1FE53EC192B11
:10282000FDF73EFE53EC182BFDF7C8FDC4E902018D
:10283000012D06D0022D07D0032D09D19FED0A0BE3
:1028400004E09FED0B0B01E09FED0B0B84ED000B03
:10285000BDEC048B70BD00002406002000000000C9
:1028600000A0844038000020000000000080664086
:10287000000000000080764000000000008056400C
:1028800070B5846B2068406994F83910C0F3C010AB
:102890000025212904D118B1E584204600F046F82E
:1028A0002068406994F83A10C0F38010222904D1BE
:1028B00018B1E585204600F02BF8E06B40F01000E1
:1028C000E0632046FFF712FB70BD10B50146806B38
:1028D00009680968C90513D40021C1850168CA685F
:1028E00022F48072CA6001684A6922F001024A61DA
:1028F00001684A6922F040024A61202180F83A10BA
:10290000FFF7C2FB10BD10B5806BFFF7C7FB10BD12
:102910000168CA6822F49072CA6001684A6922F0AC
:1029200001024A61202180F83A1070470168CA68A4
:1029300022F0C002CA60202180F8391070470000E0
:102940002DE9F041044600680169E26821F4405134
:10295000114301612169A068E2690843616911437B
:1029600008432168CA6849F20C639A430243CA606B
:1029700020684169A26921F4407111434161E06915
:10298000192764253226B0F5004F354A35492068AD
:102990004FF0000806D0884201D0904236D1FFF7B0
:1029A000A1F835E0884201D0904202D1FFF79AF8B1
:1029B00001E0FFF787F861684A18A0FB070148EBC0
:1029C0000803FDF711FC0146B0FBF5F00201B1FB75
:1029D000F5F06FF01803584301EB800006EBC000E0
:1029E000B0FBF5F000F0F80002EB4002B1FBF5F0AF
:1029F000584301EB800006EBC000B0FBF5F000F09F
:102A00000700216810448860BDE8F081FFF75AF89C
:102A100061688B0F8A00A0FB0701FDF7E5FB01460B
:102A2000B0FBF5F06FF01802504301EB800006EBAD
:102A30000010B0FBF5F000F0F002B1FBF5F002EB96
:102A40000012B1FBF5F06FF01803584301EB800062
:102A500006EB0010B0FBF5F000F00F00D1E700002E
:102A60000014014000100140FEE703B4019841004A
:102A7000009850EAC12018BF04204A0D18BF40F04A
:102A8000010040F2FF72B2EB515F08BF40F002005C
:102A9000012808BF052002B070470907090E002869
:102AA00004DB00F1E02080F80014704700F00F0014
:102AB00000F1E02080F8141D7047000000000000C5
:102AC0002DE9F04D2DED040B2DED0E8B96B0DDE9CB
:102AD0002550279CDDF890A025F0004624F0004802
:102AE000BAF1000F14BF0121002101EB4502FC499E
:102AF00053184A1093422AD3002814BF01230023FD
:102B000003EB44030B44F7498B4220D358EA0001FE
:102B10009FEDF59B76D0DFF8D8B35D4503D1BAF1D0
:102B2000000F05D188E0BAF1000F08BF002100D0E6
:102B3000012101EB450111F5001F08D8002814BF41
:102B40000121002101EB440111F5001F0BD99DED7E
:102B5000261B9DED240B16B0BDEC0E8B04B0BDE81A
:102B6000F04D00F0A9BE0027002DBCBFE14988450B
:102B700021DAE1498845A8BF02271CDAC3451ADCDF
:102B8000DE4901EB2851142908DDC1F1340220FA95
:102B900002F101FA02F282420DD108E058B9C1F106
:102BA000140228FA02F101FA02F2424503D101F0BF
:102BB0000101C1F1020756EA0A0124D1002C22DAF0
:102BC000002D18BF022F01D0012F0AD0022000F0E3
:102BD000BFFE16B0BDEC0E8B04B0BDE8F04D00F0AA
:102BE00053BE022000F0B4FE00F04EFE51EC100B7C
:102BF00081F0004141EC100B16B0BDEC0E8B04B01F
:102C0000BDE8F08D18E09FEDBEAB9FEDBF8B0028B7
:102C100071D1B848804522D105F1804010F580106F
:102C200008BFBAF1000F07D0B3450ADC002CA8BFDB
:102C30009DED260BE0DA0DE0B0EE490AF0EE690AF0
:102C4000DAE7002C06DA9DED260B51EC100B81F033
:102C500000416FE0AE48784490ED000BCCE7D845DA
:102C60004DD1002C48DA2EB186423AD1BAF1000F8C
:102C700042D126E0BAF1000F13D0022000F068FE26
:102C800000F036FE8DED020B9DED240B8DED000B5B
:102C900010EE900A039961F31E0003909DED020B64
:102CA000AAE78DED02AB9DED240B1AEE901A10EE03
:102CB000900A8DED000B61F31E0003909DED020B59
:102CC0009AE78DED028B9DED240B18EE901A10EE15
:102CD000900A8DED000B61F31E0003909DED020B39
:102CE0008AE709DA9DED240B51EC190B53EC102BFC
:102CF000FDF7D6FB1EE020E09DED240B7CE786422D
:102D00001BDAB4F1804F0DD0A4F10050B0F1FF50A8
:102D100013D1002D11DB9DED240B51EC100B00F0B5
:102D200018FF07E09DED240B53EC102B51EC100B1A
:102D300000F0C2BC41EC100B5EE79DED240B51ECA2
:102D4000100B00F00BFEBAF1000FCDE90E0142D1DD
:102D50009FED710B46B3A6F1E040B0F17F600CD05F
:102D60005E4538D1002D00DAA7B3022F0CBF012039
:102D70004FF0FF30FDF703FCDCE7002D01DD002CF8
:102D80000DDA002D01DD002C1FDB002D16DA002CE2
:102D900014DB012F08BF9FED620B3FF42DAFB0EEA7
:102DA0004A0AF0EE6A0A27E7022F18BF002D0CD05E
:102DB000012F0AD1002DFFF61FAF06E0002DB8BF8E
:102DC000002C08DA012F3FF417AFB0EE480AF0EEFE
:102DD000680A11E71BE0012000EBE57050EA0701EB
:102DE00015D0791EB0EE498AF0EE698A084308BF13
:102DF0009FED4D8B4E480025804570DD4D494E4876
:102E0000884514DDB0420DDB002C19DB2FE00120DA
:102E100000F09EFD16B0BDEC0E8B04B0BDE8F04D89
:102E200000F056BDB34502DC002C09DC1FE08642F1
:102E300002DA002C1BDA03E05E452BDD002C16DDE8
:102E4000022000F085FD00F053FD8DED020B53ECE8
:102E50001A2B51EC180BFDF7B1FACDE900010399DB
:102E6000019861F31E0003909DED020BC4E6022061
:102E700000F06EFD00F04CFD10EE901A18EE900A76
:102E80008DED020B8DED008B61F31E0003909DED27
:102E9000020BB1E69DED0E0B53EC192B51EC100B10
:102EA000FDF786FA9FED260BCDE9080153EC102BB8
:102EB0009DED080B51EC100BFDF780FA9FED221BE6
:102EC00053EC112BFDF777FA9DED081B53EC112BFA
:102ED000FDF774FA9FED1E1B53EC112B3CE08CE0C8
:102EE000FFFF1F00FFFF0F00000000000000F03F89
:102EF0000000F03F0000F07F0000404301FCFFFFB6
:102F0000000000000000F07F000000000000000052
:102F10000E10000000000000000000000000008013
:102F2000000000000000F0FF000000000000F0BF03
:102F30000000E0410000F043FFFFEF3F0000000011
:102F4000000000000000D03F555555555555D53F60
:102F5000000000000000E03FFDF72DFA9DED080B9A
:102F600041EC1A0B53EC102B51EC100BFDF726FA29
:102F700053EC1A2BFDF722FA41EC1A0B9FEDFE0BD6
:102F800053EC102B9DED080B51EC100BFDF716FACE
:102F900041EC1B0B9FEDFA0B51EC1A0B53EC102B71
:102FA000FDF70CFA41EC1A0B9FEDF70B53EC102BCD
:102FB0009DED080B51EC100BFDF700FA53EC1A2BAA
:102FC000FDF7F6F941EC1A0B51EC1B0B53EC1A2BE5
:102FD000FDF74DF90690CDE906519DED060B53EC3A
:102FE0001B2B51EC100BFDF7E3F953EC1A2BFDF7FB
:102FF000E2F941EC100B00F0A1B90020B6F5801FFA
:103000000EDA9FEDE30B53EC102B9DED0E0B51EC04
:10301000100BFDF7D3F9CDE90E016FF034000E4629
:1030200000EB2650A0F2FF37C6F31300DA4940F058
:103030007F6646F040568842D8BF002408DDD74955
:103040008142C8BF012403DC0024A6F580167F1C42
:10305000D348784400EBC4000F9690ED00CB9DED73
:103060000E0B53EC1C2B51EC100BFDF7A1F99DED51
:103070000E0B41EC1B0B53EC1C2B51EC100BFDF712
:10308000F6F841EC100B51EC190B53EC102BFDF73B
:1030900007FA41EC1D0B51EC1B0B53EC1D2BFDF7FC
:1030A0008DF941EC1A0BBF488DED10AB78441095AB
:1030B00090ED000B4FF0005040EA660000EB8440BA
:1030C0008DED080B00F5002009909DED080B53ECE9
:1030D0001C2B51EC100BFDF76BF99DED0E1B53EC07
:1030E000112BFDF768F941EC100B53EC102B9DED03
:1030F000100B51EC100BFDF761F99DED080B41EC45
:103100001C0B53EC102B9DED100B51EC100BFDF72D
:1031100055F953EC1B2BFDF74EF953EC1C2BFDF727
:1031200047F953EC1D2BFDF749F941EC1C0B53EC0F
:103130001A2B51EC1A0BFDF741F941EC1B0B9A4885
:103140000621B0EE4B0AF0EE6B0A784400F01DFB4E
:10315000B0EE401AF0EE601AB0EE41DAF0EE61DA4D
:1031600053EC1B2B51EC1B0BFDF728F953EC1D2BDB
:10317000FDF724F99DED100B41EC1B0B53EC1A2BC2
:1031800051EC100BFDF773F853EC1C2BFDF716F9FF
:1031900053EC1B2BFDF76BF89DED100B41EC1B0B5B
:1031A00053EC102B51EC100BFDF708F941EC1D0B03
:1031B0009FED7FEB53EC1E2BFDF759F853EC1B2BC7
:1031C000FDF755F80890CDE908519DED080B53EC3B
:1031D0001E2B51EC100BFDF7EBF853EC1D2BFDF7FC
:1031E000E7F853EC1B2BFDF7E6F89DED080B41ECDF
:1031F0001D0B53EC102B9DED100B51EC100BFDF73C
:10320000DDF841EC1B0B53EC1A2B51EC1D0BFDF7B9
:10321000D5F89DED080B41EC1A0B53EC102B51EC3B
:103220001C0BFDF7CBF853EC1A2BFDF720F841EC03
:103230001A0B51EC1B0B53EC1A2BFDF718F80C90E2
:10324000CDE90C519DED0C0B53EC1B2B51EC100BED
:10325000FDF7AEF853EC1A2BFDF7ADF841EC1B0B64
:103260009FED550B53EC102B9DED0C0B51EC100BFF
:10327000FDF7A4F841EC1A0B9FED510B51EC1B0B21
:1032800053EC102BFDF79AF841EC1B0B9FED4E0B06
:1032900053EC102B9DED0C0B51EC100BFDF78EF841
:1032A00053EC1B2BFCF7E3FF41EC100B4848784430
:1032B00000EBC40090ED001B51EC100B53EC112BF4
:1032C000FCF7D5FF41EC1B0B3846FDF758F9CDE96B
:1032D000080153EC1B2B51EC1A0BFCF7C8FF41EC17
:1032E000100B3C48784400EBC40090ED00CB51EC4F
:1032F000100B53EC1C2BFCF7BAFF9DED081B53EC95
:10330000112BFCF7B4FF0690CDE906519DED080B9B
:1033100053EC102B9DED060B51EC100BFDF748F80C
:1033200053EC1C2BFDF744F853EC1A2BFDF740F837
:1033300053EC1B2BFDF73FF841EC100B9DED261BCA
:1033400053EC102B8DED001B00959DED260B51ECE1
:10335000100BFDF733F89DED000B41EC1A0B53EC0D
:10336000102B9DED260B51EC100BFDF721F89DED78
:10337000061B53EC112B2FE0000000604715F73FB0
:10338000FE822B654715F73F44DF5DF80BAE543ED8
:1033900000000000000040438E9803007AB60B0046
:1033A0008A0B0000B80B0000C20A000000000000F9
:1033B0000000000000000840000000E009C7EE3FE8
:1033C000FD033ADC09C7EE3FF5015B14E02F3EBE7A
:1033D0004E09000008090000FCF7F0FF53EC1A2B1F
:1033E000FCF745FF9DED060B41EC1A0B53EC102B3F
:1033F0009DED000B51EC100BFCF7E0FFCDE90C014B
:103400009DED0C0B51EC1A0B53EC102BFCF72FFF1E
:10341000CDE902010C46AA498C422FDB611A084310
:1034200018D19DED0C0B53EC102B9DED020B51ECC4
:10343000100BFCF7BDFF41EC1B0B9FEDA30B51ECF8
:103440001A0B53EC102BFCF712FF53EC1B2BFDF760
:10345000F1F92DD2022000F07BFA00F049FA10EECB
:10346000901A18EE900A8DED020B8DED008B61F332
:103470001E0003909DED020BFFF7BEBB944A24F0A3
:103480000041914214D39349214408437FF4EFACA7
:103490009DED0C0B53EC102B9DED020B51EC100B22
:1034A000FCF786FF53EC1A2BFDF7C4F97FF6DFAC6F
:1034B00024F000408849894A002601EB20518242CD
:1034C0002BDA481C4FF4801121FA00F02044844A82
:1034D000C0F30A517A44A1F2FF3192ED000B814A08
:1034E0008DED080BCA4020EA0202C0F3130040F43D
:1034F0008010C1F1140120FA01F60992002CB8BF26
:1035000076429DED080B53EC102B9DED0C0B51EC0E
:10351000100BFCF74DFFCDE90C019DED0C0B51ECB0
:103520001A0B53EC102BFCF7A2FE9FED6F0B0890CB
:10353000CDE9085153EC102B9DED080B51EC100B0D
:10354000FCF73CFF41EC1B0B9FED690B53EC102B80
:103550009DED080B51EC100BFCF730FF9DED0C0BB3
:1035600041EC1C0B53EC102B9DED080B51EC100B98
:10357000FCF71EFF53EC1A2BFCF71DFF9FED5E1BA3
:1035800053EC112BFCF71AFF53EC1C2BFCF76FFECE
:1035900041EC1A0B51EC1B0B53EC1A2BFCF767FE9A
:1035A000CDE902019DED020B53EC1B2B51EC100BEE
:1035B000FCF7FEFE53EC1A2BFCF7FDFE9DED020B13
:1035C00041EC1A0B53EC102B51EC100BFCF7F6FEF0
:1035D000CDE908014A489DED080B0521784400F02B
:1035E000D4F89DED081B51EC100B53EC112BFCF79C
:1035F000E5FE9DED021B53EC112BFCF7DCFECDE943
:1036000006019DED020B53EC1A2B51EC100BFCF74D
:10361000D5FE53EC1A2BFCF72AFE9FED3B0B41EC39
:103620001A0B53EC102B9DED060B51EC100BFCF715
:10363000BFFE9DED060B41EC1B0B53EC102B9DEDDB
:10364000020B51EC100BFCF7B9FE53EC1B2BFCF7F3
:1036500027FF53EC1A2BFCF7ABFE9DED021B53EC3E
:10366000112BFCF7A5FE53EC192BFCF7A4FECDE9BA
:10367000020101EB065001150029C8BF039015DCBB
:103680009DED020B324651EC100BFDF76AF8FFF787
:10369000ECF9042808BF00F03BF932469DED020B1F
:1036A00051EC100BFDF75DF8CDE902019DED020B29
:1036B00051EC180B53EC102BFCF780FEFFF73ABBD4
:1036C0000000904000000000FE822B654715973CEB
:1036D00000CC904000346F3F01FCFFFF0000E03F52
:1036E00090070000FFFF0F0000000000432EE63FA0
:1036F000396CA80C615C20BEEF39FAFE422EE63F21
:103700006006000000000000000000000000004013
:1037100000B52DED048BB0EE409AF0EE609A83B0C8
:1037200051EC190BFDF734F841EC180B18EE100AA8
:1037300018EE901A8DED008B002818BF0120084369
:1037400020F00040C0F17F6000F1E040C00F14D0D5
:1037500019EE101A19EE900A8DED009B002918BF82
:103760000121084320F00040C0F17F6000F1E040FB
:10377000C00F04BF012000F0EBF8B0EE480A03B020
:10378000F0EE680ABDEC048B00BD70B504462DED6B
:10379000028B4D1E00EBC500B0EE408AF0EE608A51
:1037A00090ED000B35F0060017D053EC182B51ECC0
:1037B000100BFCF703FE41EC100B6D1E04EBC50073
:1037C00090ED001B51EC100B53EC112BFCF74FFD4F
:1037D00041EC100B35F00600E7D1022D36D0042D58
:1037E0001CD0062D1CBFBDEC028B70BD53EC182BFA
:1037F00051EC100BFCF7E2FD94ED0A1B53EC112B7E
:10380000FCF735FD53EC182BFCF7D8FD94ED081BA5
:1038100053EC112BFCF72BFD41EC100B53EC182B48
:1038200051EC100BFCF7CAFD94ED061B53EC112B69
:10383000FCF71DFD53EC182BFCF7C0FD94ED040BB9
:1038400053EC102BFCF713FD41EC100B53EC182B31
:1038500051EC100BFCF7B2FD94ED021B53EC112B55
:10386000FCF705FD53EC182BFCF7A8FD94ED001BAD
:1038700053EC112BFCF7FBFCBDEC028B41EC100B65
:1038800070BD0000000000009FED070B10B553EC69
:10389000102B9FED070B51EC100BFCF701FE41ECD8
:1038A000100B10BD00000000000000000000000030
:1038B000000000000000F03F10B553EC112B51EC5C
:1038C000100BFCF7D4FC41EC100B10BD0000000005
:1038D0009FED050B10B553EC102B51EC100BFCF7C2
:1038E000DFFD41EC100B10BD0000000000000000E7
:1038F0009FED050B10B553EC102B51EC100BFCF7A2
:103900005DFD41EC100B10BD0000000000000070D8
:103910009FED050B10B553EC102B51EC100BFCF781
:103920004DFD41EC100B10BD000000000000001028
:1039300002E008C8121F08C1002AFAD17047704778
:10394000002001E001C1121F002AFBD170470000D6
:1039500001490860704700004800002082B0CDE9AE
:10396000000121F0004001909DED000B02B051ECF0
:10397000100B70470988DFED0B0A49BA00EE101AE8
:1039800090ED0D1AB8EE400A60EE200A80EE810A32
:1039900080ED020A80ED060A80ED070A80ED080A34
:1039A000704700000000B4432DED068B82B0FDF798
:1039B00025FFFEF79BFEFEF70DFEFEF7F5FDFEF779
:1039C000D3FDFEF72DFE5248FCF766FF514C002058
:1039D000207084F8900084F8200184F8B001FCF78E
:1039E000D9FF9FED4D2BB0EE423AF0EE623A9FEDDB
:1039F0004C0BB0EE401AF0EE601AFEF751FB1222AB
:103A000049494A48FEF7F4FA494E4A4F4A4D04F1F3
:103A1000900A04F5907904F5D8789FED48AA00BF84
:103A2000B6F90400A0F5806000EB4000FCF7A7FDAC
:103A300041EC180B87ED008BB6F90600A0F580600D
:103A400000EB4000FCF79BFD41EC190B87ED029B5E
:103A5000B6F90000A0F58060404200EB8000FCF762
:103A60008EFD41EC120BB0EE491A87ED042BF0EEFF
:103A7000691AB0EE480AF0EE680AFEF7C5FB95ED4C
:103A8000040A2448B1EE400A00F05AF895ED0A0AFB
:103A90005046B1EE400A00F053F895ED100A484642
:103AA000B1EE400A00F04CF895ED160A4046B1EE32
:103AB000400A00F045F894ED820ABDEEC00A10EE0F
:103AC000100A00B2009094ED5E0ABDEEC00A10EE3E
:103AD000100A94ED3A0A03B2BDEEC00A10EE100AC5
:103AE00094ED160A02B2BDEEC00A10EE100A01B241
:103AF0000748FCF701FF0120FDF776FD85ED16AACA
:103B000085ED10AA85ED0AAA85ED04AA88E70000D4
:103B10004C00002098010020000000000000000080
:103B20009A9999999999E13F240600207400002000
:103B300018060020000000201801002000000000EE
:103B400080ED120A90ED030A80ED110A3830FEF77D
:103B500087BD00B52DED048B83B041EC190BFCF74C
:103B600017FE41EC180B18EE100A18EE901A8DEDA6
:103B7000008B002818BF0120084320F00040C0F14E
:103B80007F6000F1E040C00F14D019EE101A19EE5A
:103B9000900A8DED009B002918BF0121084320F0F9
:103BA0000040C0F17F6000F1E040C00F04BF012081
:103BB000FFF7CEFE51EC180B03B0BDEC048B00BD3B
:103BC000000610160006101600000000000000009D
:103BD00001020304060708090000000001020304B3
:103BE000000000000000F03F000000000000F83F6F
:103BF00000000000000000000000004003B8E23FA9
:103C0000000000000000000006D0CF43EBFD4C3E5A
:103C1000033333333333E33FFFAB6FDBB66DDB3F4F
:103C20004D268F515555D53F01411DA96074D13F97
:103C300065DBC9934A86CD3FEF4E454A287ECA3F91
:103C40003E5555555555C53F93BDBE166CC166BF13
:103C50002CDE25AF6A56113FF16BD2C541BDBBBE0C
:103C6000D0A4BE726937663E00000000000000006C
:103C7000903C0008000000204C0000003039000893
:103C8000DC3C00084C000020EC0900004039000832
:103C90000000000000000000000000000000000024
:103CA0000000000000000000010000001000000003
:103CB000000000000024F4000000000000000000EC
:103CC00000000000000000000000000000807640BE
:0C3CD000000000000000000000000000E8
:04000005080001AD41
:00000001FF
